{
  "_format": "hh3-artifact-1",
  "contractName": "Voting",
  "sourceName": "contracts/Voting.sol",
  "abi": [
    {
      "inputs": [],
      "stateMutability": "nonpayable",
      "type": "constructor"
    },
    {
      "inputs": [
        {
          "internalType": "address",
          "name": "owner",
          "type": "address"
        }
      ],
      "name": "OwnableInvalidOwner",
      "type": "error"
    },
    {
      "inputs": [
        {
          "internalType": "address",
          "name": "account",
          "type": "address"
        }
      ],
      "name": "OwnableUnauthorizedAccount",
      "type": "error"
    },
    {
      "anonymous": false,
      "inputs": [
        {
          "indexed": true,
          "internalType": "address",
          "name": "previousOwner",
          "type": "address"
        },
        {
          "indexed": true,
          "internalType": "address",
          "name": "newOwner",
          "type": "address"
        }
      ],
      "name": "OwnershipTransferred",
      "type": "event"
    },
    {
      "anonymous": false,
      "inputs": [
        {
          "indexed": false,
          "internalType": "uint256",
          "name": "proposalId",
          "type": "uint256"
        }
      ],
      "name": "ProposalRegistered",
      "type": "event"
    },
    {
      "anonymous": false,
      "inputs": [
        {
          "indexed": false,
          "internalType": "address",
          "name": "voter",
          "type": "address"
        },
        {
          "indexed": false,
          "internalType": "uint256",
          "name": "proposalId",
          "type": "uint256"
        }
      ],
      "name": "Voted",
      "type": "event"
    },
    {
      "anonymous": false,
      "inputs": [
        {
          "indexed": false,
          "internalType": "address",
          "name": "voterAddress",
          "type": "address"
        }
      ],
      "name": "VoterRegistered",
      "type": "event"
    },
    {
      "anonymous": false,
      "inputs": [
        {
          "indexed": false,
          "internalType": "enum Voting.WorkflowStatus",
          "name": "previousStatus",
          "type": "uint8"
        },
        {
          "indexed": false,
          "internalType": "enum Voting.WorkflowStatus",
          "name": "newStatus",
          "type": "uint8"
        }
      ],
      "name": "WorkflowStatusChange",
      "type": "event"
    },
    {
      "inputs": [
        {
          "internalType": "string",
          "name": "_desc",
          "type": "string"
        }
      ],
      "name": "addProposal",
      "outputs": [],
      "stateMutability": "nonpayable",
      "type": "function"
    },
    {
      "inputs": [
        {
          "internalType": "address",
          "name": "_addr",
          "type": "address"
        }
      ],
      "name": "addVoter",
      "outputs": [],
      "stateMutability": "nonpayable",
      "type": "function"
    },
    {
      "inputs": [],
      "name": "endProposalsRegistering",
      "outputs": [],
      "stateMutability": "nonpayable",
      "type": "function"
    },
    {
      "inputs": [],
      "name": "endVotingSession",
      "outputs": [],
      "stateMutability": "nonpayable",
      "type": "function"
    },
    {
      "inputs": [
        {
          "internalType": "uint256",
          "name": "_id",
          "type": "uint256"
        }
      ],
      "name": "getOneProposal",
      "outputs": [
        {
          "components": [
            {
              "internalType": "string",
              "name": "description",
              "type": "string"
            },
            {
              "internalType": "uint256",
              "name": "voteCount",
              "type": "uint256"
            }
          ],
          "internalType": "struct Voting.Proposal",
          "name": "",
          "type": "tuple"
        }
      ],
      "stateMutability": "view",
      "type": "function"
    },
    {
      "inputs": [],
      "name": "getProposals",
      "outputs": [
        {
          "components": [
            {
              "internalType": "string",
              "name": "description",
              "type": "string"
            },
            {
              "internalType": "uint256",
              "name": "voteCount",
              "type": "uint256"
            }
          ],
          "internalType": "struct Voting.Proposal[]",
          "name": "",
          "type": "tuple[]"
        }
      ],
      "stateMutability": "view",
      "type": "function"
    },
    {
      "inputs": [
        {
          "internalType": "address",
          "name": "_addr",
          "type": "address"
        }
      ],
      "name": "getVoter",
      "outputs": [
        {
          "components": [
            {
              "internalType": "bool",
              "name": "isRegistered",
              "type": "bool"
            },
            {
              "internalType": "bool",
              "name": "hasVoted",
              "type": "bool"
            },
            {
              "internalType": "uint256",
              "name": "votedProposalId",
              "type": "uint256"
            }
          ],
          "internalType": "struct Voting.Voter",
          "name": "",
          "type": "tuple"
        }
      ],
      "stateMutability": "view",
      "type": "function"
    },
    {
      "inputs": [],
      "name": "owner",
      "outputs": [
        {
          "internalType": "address",
          "name": "",
          "type": "address"
        }
      ],
      "stateMutability": "view",
      "type": "function"
    },
    {
      "inputs": [],
      "name": "renounceOwnership",
      "outputs": [],
      "stateMutability": "nonpayable",
      "type": "function"
    },
    {
      "inputs": [
        {
          "internalType": "uint256",
          "name": "_id",
          "type": "uint256"
        }
      ],
      "name": "setVote",
      "outputs": [],
      "stateMutability": "nonpayable",
      "type": "function"
    },
    {
      "inputs": [],
      "name": "startProposalsRegistering",
      "outputs": [],
      "stateMutability": "nonpayable",
      "type": "function"
    },
    {
      "inputs": [],
      "name": "startVotingSession",
      "outputs": [],
      "stateMutability": "nonpayable",
      "type": "function"
    },
    {
      "inputs": [],
      "name": "tallyVotes",
      "outputs": [],
      "stateMutability": "nonpayable",
      "type": "function"
    },
    {
      "inputs": [
        {
          "internalType": "address",
          "name": "newOwner",
          "type": "address"
        }
      ],
      "name": "transferOwnership",
      "outputs": [],
      "stateMutability": "nonpayable",
      "type": "function"
    },
    {
      "inputs": [],
      "name": "winningProposalID",
      "outputs": [
        {
          "internalType": "uint256",
          "name": "",
          "type": "uint256"
        }
      ],
      "stateMutability": "view",
      "type": "function"
    },
    {
      "inputs": [],
      "name": "workflowStatus",
      "outputs": [
        {
          "internalType": "enum Voting.WorkflowStatus",
          "name": "",
          "type": "uint8"
        }
      ],
      "stateMutability": "view",
      "type": "function"
    }
  ],
  "bytecode": "0x6080604052348015600e575f5ffd5b503380603357604051631e4fbdf760e01b81525f600482015260240160405180910390fd5b603a81603f565b50608e565b5f80546001600160a01b038381166001600160a01b0319831681178455604051919092169283917f8be0079c531659141344cd1fd0a4f28419497f9722a3daafe3b4186f6b6457e09190a35050565b6113168061009b5f395ff3fe608060405234801561000f575f5ffd5b50600436106100fb575f3560e01c8063a7bfab1611610093578063d4f50f9811610063578063d4f50f98146101d8578063ee74c67814610211578063f2fde38b14610219578063f4ab9adf1461022c575f5ffd5b8063a7bfab16146101a9578063bdc01431146101b1578063c7038a4e146101c8578063c88af42f146101d0575f5ffd5b8063715018a6116100ce578063715018a61461014d5780638da5cb5b14610155578063a1edffa21461016f578063a2788cce14610189575f5ffd5b8063230796ae146100ff5780632fdae3c514610114578063378a21781461012757806362564c481461012f575b5f5ffd5b61011261010d366004610eb3565b61023f565b005b610112610122366004610eca565b6103e8565b61011261060d565b610137610728565b6040516101449190610f7a565b60405180910390f35b61011261081d565b5f546040516001600160a01b039091168152602001610144565b60025461017c9060ff1681565b6040516101449190611011565b61019c610197366004610eb3565b610830565b6040516101449190611025565b61011261093c565b6101ba60015481565b604051908152602001610144565b6101126109b3565b610112610ae4565b6101eb6101e636600461103e565b610b8e565b604080518251151581526020808401511515908201529181015190820152606001610144565b610112610c21565b61011261022736600461103e565b610cce565b61011261023a36600461103e565b610d0b565b335f9081526004602052604090205460ff166102765760405162461bcd60e51b815260040161026d90611064565b60405180910390fd5b600360025460ff16600581111561028f5761028f610fdd565b146102ac5760405162461bcd60e51b815260040161026d90611090565b335f90815260046020526040902054610100900460ff16151560010361030d5760405162461bcd60e51b8152602060048201526016602482015275165bdd481a185d9948185b1c9958591e481d9bdd195960521b604482015260640161026d565b60035481106103535760405162461bcd60e51b8152602060048201526012602482015271141c9bdc1bdcd85b081b9bdd08199bdd5b9960721b604482015260640161026d565b335f90815260046020526040902060018101829055805461ff0019166101001790556003805482908110610389576103896110d1565b5f918252602082206001600290920201018054916103a6836110f9565b909155505060408051338152602081018390527f4d99b957a2bc29a30ebd96a7be8e68fe50a3c701db28a91436490b7d53870ca491015b60405180910390a150565b335f9081526004602052604090205460ff166104165760405162461bcd60e51b815260040161026d90611064565b600160025460ff16600581111561042f5761042f610fdd565b1461047c5760405162461bcd60e51b815260206004820152601d60248201527f50726f706f73616c7320617265206e6f7420616c6c6f77656420796574000000604482015260640161026d565b6040516020016104969060208082525f9082015260400190565b6040516020818303038152906040528051906020012082826040516020016104bf929190611111565b604051602081830303815290604052805190602001200361052e5760405162461bcd60e51b815260206004820152602360248201527f566f7573206e6520706f7576657a20706173206e65207269656e2070726f706f60448201526239b2b960e91b606482015260840161026d565b60408051808201909152606081525f602082015282828080601f0160208091040260200160405190810160405280939291908181526020018383808284375f920182905250938552505060038054600181018255925250815182916002027fc2575a0e9e593c00f959f8c92f12db2869c3395a3b0502d05e2516446f71f85b019081906105bb90826111d7565b50602091909101516001918201556003547f92e393e9b54e2f801d3ea4beb0c5e71a21cc34a5d34b77d0fb8a3aa1650dc18f916105f791611292565b60405190815260200160405180910390a1505050565b610615610e38565b600460025460ff16600581111561062e5761062e610fdd565b1461068e5760405162461bcd60e51b815260206004820152602a60248201527f43757272656e7420737461747573206973206e6f7420766f74696e67207365736044820152691cda5bdb88195b99195960b21b606482015260840161026d565b5f805b6003548110156106f357600382815481106106ae576106ae6110d1565b905f5260205f20906002020160010154600382815481106106d1576106d16110d1565b905f5260205f2090600202016001015411156106eb578091505b600101610691565b5060018190556002805460ff191660059081179091556040515f5160206112c15f395f51905f52916103dd91600491906112a5565b60606003805480602002602001604051908101604052809291908181526020015f905b82821015610814578382905f5260205f2090600202016040518060400160405290815f8201805461077b90611153565b80601f01602080910402602001604051908101604052809291908181526020018280546107a790611153565b80156107f25780601f106107c9576101008083540402835291602001916107f2565b820191905f5260205f20905b8154815290600101906020018083116107d557829003601f168201915b505050505081526020016001820154815250508152602001906001019061074b565b50505050905090565b610825610e38565b61082e5f610e64565b565b60408051808201909152606081525f6020820152335f9081526004602052604090205460ff166108725760405162461bcd60e51b815260040161026d90611064565b60038281548110610885576108856110d1565b905f5260205f2090600202016040518060400160405290815f820180546108ab90611153565b80601f01602080910402602001604051908101604052809291908181526020018280546108d790611153565b80156109225780601f106108f957610100808354040283529160200191610922565b820191905f5260205f20905b81548152906001019060200180831161090557829003601f168201915b505050505081526020016001820154815250509050919050565b610944610e38565b600360025460ff16600581111561095d5761095d610fdd565b1461097a5760405162461bcd60e51b815260040161026d90611090565b6002805460ff191660049081179091556040515f5160206112c15f395f51905f52916109a991600391906112a5565b60405180910390a1565b6109bb610e38565b5f60025460ff1660058111156109d3576109d3610fdd565b14610a325760405162461bcd60e51b815260206004820152602960248201527f5265676973746572696e672070726f706f73616c732063616e742062652073746044820152686172746564206e6f7760b81b606482015260840161026d565b6002805460ff191660019081178255604080518082018252606081525f60208083018290528351808501909452600784526647454e4553495360c81b908401529181526003805493840181559091528051909283927fc2575a0e9e593c00f959f8c92f12db2869c3395a3b0502d05e2516446f71f85b910201908190610ab890826111d7565b506020820151816001015550505f5160206112c15f395f51905f525f60016040516103dd9291906112a5565b610aec610e38565b600160025460ff166005811115610b0557610b05610fdd565b14610b635760405162461bcd60e51b815260206004820152602860248201527f5265676973746572696e672070726f706f73616c7320686176656e74207374616044820152671c9d1959081e595d60c21b606482015260840161026d565b6002805460ff1916811781556040515f5160206112c15f395f51905f52916109a991600191906112a5565b604080516060810182525f808252602080830182905282840182905233825260049052919091205460ff16610bd55760405162461bcd60e51b815260040161026d90611064565b506001600160a01b03165f908152600460209081526040918290208251606081018452815460ff8082161515835261010090910416151592810192909252600101549181019190915290565b610c29610e38565b6002805460ff166005811115610c4157610c41610fdd565b14610ca25760405162461bcd60e51b815260206004820152602b60248201527f5265676973746572696e672070726f706f73616c73207068617365206973206e60448201526a1bdd08199a5b9a5cda195960aa1b606482015260840161026d565b6002805460ff1916600390811782556040515f5160206112c15f395f51905f52926109a99290916112a5565b610cd6610e38565b6001600160a01b038116610cff57604051631e4fbdf760e01b81525f600482015260240161026d565b610d0881610e64565b50565b610d13610e38565b5f60025460ff166005811115610d2b57610d2b610fdd565b14610d845760405162461bcd60e51b815260206004820152602360248201527f566f7465727320726567697374726174696f6e206973206e6f74206f70656e206044820152621e595d60ea1b606482015260840161026d565b6001600160a01b0381165f9081526004602052604090205460ff161515600103610de55760405162461bcd60e51b8152602060048201526012602482015271105b1c9958591e481c9959da5cdd195c995960721b604482015260640161026d565b6001600160a01b0381165f81815260046020908152604091829020805460ff1916600117905590519182527fb6be2187d059cc2a55fe29e0e503b566e1e0f8c8780096e185429350acffd3dd91016103dd565b5f546001600160a01b0316331461082e5760405163118cdaa760e01b815233600482015260240161026d565b5f80546001600160a01b038381166001600160a01b0319831681178455604051919092169283917f8be0079c531659141344cd1fd0a4f28419497f9722a3daafe3b4186f6b6457e09190a35050565b5f60208284031215610ec3575f5ffd5b5035919050565b5f5f60208385031215610edb575f5ffd5b823567ffffffffffffffff811115610ef1575f5ffd5b8301601f81018513610f01575f5ffd5b803567ffffffffffffffff811115610f17575f5ffd5b856020828401011115610f28575f5ffd5b6020919091019590945092505050565b5f81516040845280518060408601528060208301606087015e5f60608287010152602084015160208601526060601f19601f8301168601019250505092915050565b5f602082016020835280845180835260408501915060408160051b8601019250602086015f5b82811015610fd157603f19878603018452610fbc858351610f38565b94506020938401939190910190600101610fa0565b50929695505050505050565b634e487b7160e01b5f52602160045260245ffd5b6006811061100d57634e487b7160e01b5f52602160045260245ffd5b9052565b6020810161101f8284610ff1565b92915050565b602081525f6110376020830184610f38565b9392505050565b5f6020828403121561104e575f5ffd5b81356001600160a01b0381168114611037575f5ffd5b6020808252601290820152712cb7ba93b932903737ba1030903b37ba32b960711b604082015260600190565b60208082526021908201527f566f74696e672073657373696f6e20686176656e7420737461727465642079656040820152601d60fa1b606082015260800190565b634e487b7160e01b5f52603260045260245ffd5b634e487b7160e01b5f52601160045260245ffd5b5f6001820161110a5761110a6110e5565b5060010190565b60208152816020820152818360408301375f818301604090810191909152601f909201601f19160101919050565b634e487b7160e01b5f52604160045260245ffd5b600181811c9082168061116757607f821691505b60208210810361118557634e487b7160e01b5f52602260045260245ffd5b50919050565b601f8211156111d257805f5260205f20601f840160051c810160208510156111b05750805b601f840160051c820191505b818110156111cf575f81556001016111bc565b50505b505050565b815167ffffffffffffffff8111156111f1576111f161113f565b611205816111ff8454611153565b8461118b565b6020601f821160018114611237575f83156112205750848201515b5f19600385901b1c1916600184901b1784556111cf565b5f84815260208120601f198516915b828110156112665787850151825560209485019460019092019101611246565b508482101561128357868401515f19600387901b60f8161c191681555b50505050600190811b01905550565b8181038181111561101f5761101f6110e5565b604081016112b38285610ff1565b6110376020830184610ff156fe0a97a4ee45751e2abf3e4fc8946939630b11b371ea8ae39ccdc3056e98f5cc3fa2646970667358221220ae80d76f9b31687b8d5855560ca5aea931a34f298c76ed0bc889dfaf57ebc4d564736f6c634300081c0033",
  "linkReferences": {},
  "deployedLinkReferences": {},
  "immutableReferences": {},
  "inputSourceName": "project/contracts/Voting.sol",
  "buildInfoId": "solc-0_8_28-2c69ecbe3b16e5fa4cdb6ec64b5de10538a3c1f4"
}